:10000000DAC1000009C2000007C2000005C20000FA
:1000100003C2000001C20000FFC10000FDC10000DA
:10002000FBC10000F9C10000F7C10000F5C10000EC
:10003000F3C100000C94960DEFC10000EDC100006B
:10004000EBC100004FC70000E7C10000E5C10000A0
:10005000E3C100000C94200ADFC10000DDC10000F4
:10006000DBC100000C9444080C947508D5C1000055
:10007000D3C10000D1C10000CFC10000CDC100003C
:10008000CBC10000C9C10000C7C10000C5C100004C
:100090000C94A2080C94D308BFC10000BDC100009D
:1000A000BBC10000B9C10000B7C10000B5C100006C
:1000B000B3C10000B1C10000AFC10000ADC100007C
:1000C000ABC10000A9C10000A7C100000C946109E8
:1000D0000C949309A1C100000C94C0090C94F2097E
:1000E0009BC100009B069C069C069C069C069C06E9
:1000F0009C069C069C069C069C069C069C069C06F0
:100100009C069C069C069C0693069C069C069C06E8
:100110009C069C0695069C069C0691069C069C06E1
:100120009C069C069B069C069C069C069C069C06C0
:100130009C069C069C069C069C069C0697069C06B4
:100140009C069C069C0699068D069C069C069C06B1
:100150009C069C068F065B44454255475D20004641
:1001600072616D65207769746820436F6D6D616E93
:10017000643A202578005B44454255475D2000469F
:1001800072616D652073656E7420776974682043B1
:100190006F6D6D616E643A2025780043616E27743F
:1001A00020706F702066726F6D20656D707479209D
:1001B00072656164792071756575650043616E27AC
:1001C000742070757368206F6E2066756C6C207279
:1001D0006561647920717565756500202020202097
:1001E000202020005B4552524F525D200020537466
:1001F00061636B20636F6C6C6964657320776974ED
:100200006820676C6F62616C2076617273002D2DBF
:100210002D2D2D2D2D2D2D2D2D2D2D2D2D2D2D2D0E
:100220002D2D2D2D2D2D2D2D2D2D2D2D2D2D2D2DFE
:100230002D2D2D2D2D2D2D2D2D2D2D2D2D2D2D2DEE
:100240000A005B494E464F5D2020005573656420CF
:10025000676C6F62616C20766172733A2025642F3F
:100260002564206279746573005B494E464F5D20BA
:100270002000426F6F74696E672044454F53202EF3
:100280002E2E000A0A23232323232323232323237D
:10029000232323232323232323232323232323232E
:1002A000232323232323232323232323232323231E
:1002B000232323232323230A00426F6F74696E676D
:1002C0002044454F53202E2E2E00556E65787065C4
:1002D000637465642072657475726E2066726F6DEA
:1002E0002069646C652070726F6365737300496484
:1002F0006C652070726F63657373206E6F7420720B
:10030000656769737465726564006272756800532D
:100310007461636B206F766572666C6F77206465BD
:1003200074656374656400537461636B20636F72FA
:1003300072757074696F6E2064657465637465644A
:1003400000537461636B206F766572666C6F772003
:10035000646574656374656400437269742E205328
:10036000656374696F6E202020756E646572666CBB
:100370006F7700437269742E2053656374696F6EE2
:100380002020206F766572666C6F77002049444CA0
:10039000452000383D3D3D3D440028282B5F2B295A
:1003A000290057616974696E672E2E2E2000F20BAA
:1003B000181029103A1011241FBECFEFD1E2DEBF72
:1003C000CDBF00E00CBF12E0A0E0B2E0EAE5F6E24B
:1003D00000E00BBF02C007900D92A032B107D9F721
:1003E00025E0A0E2B2E001C01D92AA38B207E1F711
:1003F00011E0CBEDD1E000E006C021970109802F8C
:10040000FE010E945F10C73DD10780E00807A9F7F1
:100410000E94D30A0C942B13F3CD6FD184B1806862
:1004200084B981E08093200208950EC20895FC01F2
:100430008081882321F085B1806885B9089585B1D0
:100440008F7785B9089585B1805885B90895F9C326
:100450000895FC016181808107C408950F931F9363
:10046000CF93DF93CDB7DEB7A1970FB6F894DEBF79
:100470000FBECDBF8C01F8014191BF0150E0CE010C
:1004800001960E946710F8018081E1E0F0E0EC0F36
:10049000FD1FE80FF11D1082CE0101965BD4A196DD
:1004A0000FB6F894DEBF0FBECDBFDF91CF911F9185
:1004B0000F9108951F93CF93DF93FC012481222392
:1004C00009F44BC0EC0115811F921F938FE591E059
:1004D0009F938F9386E591E09F938F93A7D50F907D
:1004E0000F900F900F900F900F901031B9F028F4EB
:1004F000113041F0123069F030C01131A1F01231E9
:10050000C9F02BC08C81823041F5CE0106968FDF79
:1005100024C08C81813009F596DF1FC08C81813029
:10052000E1F495DF1AC08C818330B9F4CE010696D0
:1005300090DF13C02C81223080F0BE016A5F7F4FB4
:100540009E8130E0492F50E04E5F5F4F2417350702
:1005500021F4913210F4CB0181DFDF91CF911F9113
:100560000895CF93DF93CDB7DEB7E1970FB6F89438
:10057000DEBF0FBECDBF91E099836A83AE014F5FAE
:100580005F4F62E002D1E1960FB6F894DEBF0FBE76
:10059000CDBFDF91CF910895CF93DF93CDB7DEB775
:1005A000E1970FB6F894DEBF0FBECDBF90E19983FF
:1005B000AE014F5F5F4F61E0E8D0E1960FB6F8946F
:1005C000DEBF0FBECDBFDF91CF910895EF92FF92B6
:1005D0000F931F93CF93DF93CDB7DEB7C255D109E9
:1005E0000FB6F894DEBF0FBECDBF082F82E189831E
:1005F000FB0101900020E9F731971E2F161B1132E5
:1006000008F010E21AABE12EF12CA701CE01C3963F
:100610000E946710A7014F5F5F4FBE016E5C7F4F66
:10062000CE0102960E94671062E0610FAE014F5F3B
:100630005F4F802FAAD0CE5ADF4F0FB6F894DEBF9F
:100640000FBECDBFDF91CF911F910F91FF90EF9023
:100650000895CF93DF93CDB7DEB7A1970FB6F89487
:10066000DEBF0FBECDBF90E00EC0FB01E90FF11D54
:10067000E491EE2351F0A1E0B0E0AC0FBD1FA90F53
:10068000B11DEC939F5F903280F3E1E0F0E0EC0F5E
:10069000FD1FE90FF11D1082BE016F5F7F4F96DFD6
:1006A000A1960FB6F894DEBF0FBECDBFDF91CF91FC
:1006B00008958F929F92AF92BF92CF92DF92EF9266
:1006C000FF924B015C0169017A01FBD6DC01CB0191
:1006D00088199909AA09BB0921E08C159D05AE0569
:1006E000BF0508F420E0822FFF90EF90DF90CF90BD
:1006F000BF90AF909F908F90089529C10895CF9299
:10070000DF92EF92FF92CF93C82F6A017B010BC05B
:1007100024EF31E040E050E0C701B601CADF8111AB
:100720000AC00E94640E4DD12C2F30E0821793072F
:1007300078F381E001C080E0CF91FF90EF90DF90EF
:10074000CF900895FC0190E008C0DB01A90FB11D16
:100750002C918081282720839F5F9417B0F3089500
:100760000F931F93CF93DF93EC018B01188245E029
:10077000E9DFB8016B5F7F4FF8014481CE01E2DF12
:10078000DF91CF911F910F910895EF92FF921F93E8
:10079000CF93DF93CDB7DEB7E8970FB6F894DEBFFF
:1007A0000FBECDBF162F7A012091010230910202B7
:1007B0003A832983909100029B838C836D83462F1B
:1007C00050E0B701CE0106960E94671018AEBE0138
:1007D0006F5F7F4FCE01C896C3DF62E0CE01019606
:1007E000DBD061E0CE010396D7D061E0CE01049664
:1007F000D3D061E0CE010596CFD0612FC701CCD018
:1008000088AD8FAB8E811F928F938FE791E09F937E
:100810008F9386E791E09F938F9308D461E0CE0198
:10082000C796BAD00F900F900F900F900F900F9027
:10083000E8960FB6F894DEBF0FBECDBFDF91CF9123
:100840001F91FF90EF900895CF92DF92EF92FF9269
:10085000CF93DF93CDB7DEB7EA970FB6F894DEBF3C
:100860000FBECDBF2ED6AB01BC0182E048DF88238E
:1008700009F460C061E0CE010196A5D0298130E085
:10088000809101029091020299272817390709F0F7
:1008900051C061E0CE01029696D02A8130E050919D
:1008A000010240910202842F90E02817390709F0D5
:1008B00041C05B834C8305D66B017C0161E0CE01B6
:1008C000059681D0811136C061E0CE0106967BD0BD
:1008D000811130C061E0CE01079675D081112AC028
:1008E0008F81823338F5B701A6018F5F08DF882337
:1008F00009F16F81CE01089666D081111BC061E0BD
:10090000CE01C99660D0811115C01AAEBE016D5FCF
:100910007F4FCE01CA9624DF99AD8AAD98130AC0E5
:100920008E8190910002891711F08F3F19F4CE014A
:100930000396C0DDEA960FB6F894DEBF0FBECDBFBA
:10094000DF91CF91FF90EF90DF90CF90089589E1F4
:1009500090E057C408958CC40895CF93DF93EC01C1
:100960006BD49C012227232B19F4888380E011C0CB
:1009700094FD0CC09C0122273A70232B19F0888328
:1009800081E007C090FF04C084E003C082E001C0A2
:1009900082E0DF91CF9108950F931F93CF93DF9360
:1009A0008C01D62FC0E006C0F801EC0FF11D80814C
:1009B000D2DFCF5FCD17C0F3DF91CF911F910F91A1
:1009C00008956BC408950F931F93CF93DF938C0109
:1009D000D62FF7DF2D2F30E08217930768F0C0E0A5
:1009E00007C0C8018C0F911DB8DF811106C0CF5F11
:1009F000CD17B8F380E001C084E0DF91CF911F9163
:100A00000F91089580B38E7F80BB80E480937C003B
:100A1000EAE7F0E087E880838081806480838091CA
:100A20007A0086FDFCCF8091780090917900823425
:100A3000910580F08B3D910578F0893821E092078F
:100A400068F0883522E0920758F08836934050F4D9
:100A500084E0089580E0089581E0089582E008959B
:100A600083E0089585E00895CF93C82FCBDF91E010
:100A70008C1390E0892FCF910895CF93C82FC2DFB8
:100A800091E08C1301C090E0892FCF910895CF930E
:100A9000C82F8C2FE9DF8823E1F3CF910895CF93FE
:100AA000C82F8C2FEADF8823E1F3CF91089558D621
:100AB000E2E0F1E080818064808385E08A95F1F74F
:100AC000000080818F7B80838FE891E00197F1F7B0
:100AD00000C0000064C60895CF93C82F41D6C0FF60
:100AE00004C084B3806284BB03C084B38F7D84BBA5
:100AF000C1FF04C08EB188608EB903C08EB1877FFC
:100B00008EB9C2FF06C0E2E0F1E080818860808398
:100B100005C0E2E0F1E08081877F8083C3FF06C0EB
:100B2000E2E0F1E080818061808305C0E2E0F1E0F5
:100B300080818F7E8083BBDF32D6CF9108950F9363
:100B40001F93CF93DF93CDB7DEB7AE01485F5F4F02
:100B5000DA016D917D91AD0104E815E0D80112969E
:100B6000ED91FC91139783818860838383E092E009
:100B70000E947010D8011296ED91FC911397838119
:100B8000877F8383DF91CF911F910F910895CF933A
:100B9000C82FE6D5E2E0F1E080818F7D80838C2F45
:100BA00082958F7099DF8C2F97DF85ED8A95F1F70D
:100BB0000000F5D5CF910895D3D5E1E0F1E0808133
:100BC000886780838DB188608DB983B3806283BB71
:100BD00080B3816080BB81B38E7F81BB2FEF80E7C4
:100BE00092E0215080409040E1F700C0000083E097
:100BF00073DF8FE19EE40197F1F700C0000083E00E
:100C00006BDF8FE193E00197F1F700C0000083E014
:100C100063DF8FE193E00197F1F700C0000082E00D
:100C20005BDF88E2B4DF8CE0B2DF81E0B0DF86E03A
:100C3000AEDF8FE19EE40197F1F700C00000AFC581
:100C400008958ED510920C0581E0A1DF8FE39FE11E
:100C50000197F1F700C00000A2C508958CE097CF7E
:100C6000089588E094CF0895CF93DF93D82FC62FAF
:100C7000823008F0D1E074D58C2F90E4D99F800D9C
:100C80001124806884DF80E1D89FC00D1124C093B7
:100C90000C0585D5DF91CF910895CF93C82F60D5EE
:100CA000E2E0F1E08081806280838C2F82958F70FA
:100CB00013DF8C2F11DF85ED8A95F1F700006FD5DA
:100CC000CF91089560E080E0CFCF089560E081E0AB
:100CD000CBCF0895CF93C82F43D5CA3031F480913C
:100CE0000C058071805F80930C0580910C0580312C
:100CF00011F4ECDF04C0803211F4A3DFE3DF8C2FAA
:100D000090E0FC01E458F109E933F105A8F48827E3
:100D1000EE58FF4F8F4F0C945F10CFEE0DC0C5EF14
:100D20000BC0C2EE09C0CFEE07C0C5EF05C0CFEDC6
:100D300003C0C4EE01C0C1EE8C2FAFDF80910C0563
:100D40008F5F80930C052BD5CF910895C3DF80E092
:100D500090E008950F931F93CF93DF93EC0100D59C
:100D600002C0B8DFE8018E010F5F1F4F888181113B
:100D7000F8CF15D5DF91CF911F910F9108950F9363
:100D80001F93CF93DF93EC01EBD402C0A3DFE80104
:100D90008E010F5F1F4FFE0184918111F7CFFFD4A9
:100DA000DF91CF911F910F910895FC0121859285CC
:100DB00081E0291380E00895CF93DF93EC01F5DF04
:100DC000882339F08BE991E09F938F934FD40F9054
:100DD0000F909985292F30E0FE01E20FF31F8081EB
:100DE0002F5F3F4F2930310514F49F5F01C090E021
:100DF0009987DF91CF910895FC01228530E02F5F24
:100E00003F4F2930310514F020E030E0FC014185EE
:100E100050E081E02417350709F080E008951F9322
:100E2000CF93DF93EC01162FE7DF882339F08CEBAB
:100E300091E09F938F931AD40F900F902A85822F61
:100E400090E0FE01E80FF91F10830196099714F452
:100E50002F5F01C020E02A87DF91CF911F91089575
:100E6000FC01118612860895FC01218530E032C014
:100E7000DF01A20FB31F5C91561324C018C0B90143
:100E80006F5F7F4F693071051CF0A0E0B0E001C0DA
:100E9000DB01AE0FBF1F5C91DF01A20FB31F5C939C
:100EA000693071051CF020E030E001C09B0128177B
:100EB000390729F7442311F0415001C048E0428727
:100EC00081E00895C901019620E030E08930910564
:100ED0000CF49C014285842F90E02817390741F6D5
:100EE00080E008951F920F920FB60F9211248F93F6
:100EF0009F93AF93BF938091210290912202A09182
:100F00002302B09124029058AF4FBF4F809321022B
:100F100090932202A0932302B0932402BF91AF9139
:100F20009F918F910F900FBE0F901F901895E1E841
:100F3000F0E080818E7F808380818D7F80838081BF
:100F40008B7F80830895109280001092850010920C
:100F5000840081E090E09093890080938800EFE620
:100F6000F0E0808181608083E2CF0895F9D383E04F
:100F700090E09093D5008093D400E0EDF0E0808184
:100F80008D7F8083E1EDF0E08081806180838081CE
:100F90008860808304C408959091D00095FFFCCFB1
:100FA0008093D60008950F931F93CF93DF938C0106
:100FB000D7D3D0E00DC0F801ED0FF11DC491CA30B8
:100FC00011F48DE0E9DFCC2329F08C2FE5DFDF5F22
:100FD000DF3F89F7E4D3DF91CF911F910F910895FF
:100FE000C5DF81E192E0909387058093860508959F
:100FF000CF93C82F8A3011F48DE0CEDF8C2FCCDF59
:10100000CF910895D0CF0895CF93C82FA9D38C2F17
:10101000EFDFCA3019F48BED91E0F4DFC0D380E04C
:1010200090E0CF9108958AE0E3CF08950F931F9346
:10103000CF93DF93CDB7DEB793D388859985E2DF71
:1010400004E815E0D8011296ED91FC911397838185
:1010500088608383AE01445F5F4F6A857B8512960B
:101060008D919C9113970E947010D8011296ED916A
:10107000FC9113978381877F8383D5DF90D3DF91A2
:10108000CF911F910F9108951F920F920FB60F925B
:1010900011240BB60F922F938F939F93EF93FF938F
:1010A0008091C0002091C6008C71E0910605EF5F31
:1010B00090910505E91739F0E0930605F0E0E75F48
:1010C000FA4F208301C082E090910405892B809320
:1010D0000405FF91EF919F918F912F910F900BBE7F
:1010E0000F900FBE0F901F9018951F920F920FB682
:1010F0000F9211240BB60F928F939F93EF93FF9350
:101100009091080580910705981761F0E091070517
:10111000EF5FE0930705F0E0E75FFA4F808180938F
:10112000C60005C0E1ECF0E080818F7D8083FF91F7
:10113000EF919F918F910F900BBE0F900FBE0F906C
:101140001F9018951F920F920FB60F9211240BB695
:101150000F922F938F939F93EF93FF938091C800EB
:101160002091CE008C71E091C103EF5F9091C0039C
:10117000E91739F0E093C103F0E0EC53FC4F208312
:1011800001C082E09091BF03892B8093BF03FF9140
:10119000EF919F918F912F910F900BBE0F900FBEEB
:1011A0000F901F9018951F920F920FB60F92112457
:1011B0000BB60F928F939F93EF93FF939091C3037E
:1011C0008091C203981769F0E091C203EF5FEF735B
:1011D000E093C203F0E0EC53FB4F80818093CE009C
:1011E00005C0E9ECF0E080818F7D8083FF91EF9175
:1011F0009F918F910F900BBE0F900FBE0F901F907D
:1012000018951092C3031092C2031092C10310925A
:10121000C003282F392F33231CF422E02093C80069
:1012200090789093CD008093CC0088E98093C9009A
:1012300086E08093CA0008959091C1038091C00315
:10124000981799F08091C0038F5FE82FF0E0EC537E
:10125000FC4F20813091BF038093C0031092BF03E5
:1012600080E0932F820F911D089580E091E0089512
:101270002091C3032F5F2F739091C2032917E1F3CD
:10128000E22FF0E0EC53FB4F80832093C303E9ECA3
:10129000F0E080818062808308952091C00330E077
:1012A0008091C10390E08217930718F0821B930B83
:1012B000089540E051E0BA01621B730B860F971F3F
:1012C00008951F920F920FB60F9211240BB60F9232
:1012D0002F938F939F93EF93FF938091D000209152
:1012E000D6008C71E091AC02EF5FEF709091AB0291
:1012F000E91739F0E093AC02F0E0E155FD4F2083AF
:1013000001C082E09091AA02892B8093AA02FF91EA
:10131000EF919F918F912F910F900BBE0F900FBE69
:101320000F901F9018951F920F920FB60F921124D5
:101330000BB60F928F939F93EF93FF939091AE0212
:101340008091AD02981761F0E091AD02EF5FE093FC
:10135000AD02F0E0E154FD4F80818093D60005C0DE
:10136000E1EDF0E080818F7D8083FF91EF919F918F
:101370008F910F900BBE0F900FBE0F901F9018957E
:101380001F920F920FB60F9211240BB60F922F934C
:101390008F939F93EF93FF938091300120913601BB
:1013A0008C71E0912702EF5FEF7390912602E917AD
:1013B00039F0E0932702F0E0E65DFD4F208301C0A5
:1013C00082E090912502892B80932502FF91EF9175
:1013D0009F918F912F910F900BBE0F900FBE0F908A
:1013E0001F9018951F920F920FB60F9211240BB6F3
:1013F0000F928F939F93EF93FF9390912902809187
:101400002802981769F0E0912802EF5FEF73E093EC
:101410002802F0E0E659FD4F80818093360105C037
:10142000E1E3F1E080818F7D8083FF91EF919F91D7
:101430008F910F900BBE0F900FBE0F901F901895BD
:101440001F920F920FB60F9211248F939F93AF9319
:10145000BF9380910D0590910E05A0910F05B0915D
:1014600010050196A11DB11D80930D0590930E05E9
:10147000A0930F05B0931005BF91AF919F918F91ED
:101480000F900FBE0F901F90189510920D0510929F
:101490000E0510920F051092100585B5816085BD6F
:1014A00085B5826085BD85B58B7F85BD84B582603D
:1014B00084BD89EF87BDEEE6F0E0808182608083A5
:1014C00008950FB607FC18C0A99B16C085B38260AB
:1014D00085BB80910D0590910E05A0910F05B091EF
:1014E00010050196A11DB11D80930D0590930E0569
:1014F000A0930F05B09310058FB7282F221F222726
:10150000221FF89460910D0570910E0580910F05D2
:1015100090911005222309F078940895CF92DF92DC
:10152000EF92FF920F931F93CF93DF930097D1F029
:10153000EC01C7DF6B017C0106C08FE891E00197E9
:10154000F1F700C00000BDDFDC01CB018C199D0963
:10155000AE09BF098E0120E030E080179107A20795
:10156000B30758F3DF91CF911F910F91FF90EF9048
:10157000DF90CF900895CF93DF93CDB7DEB79F81F3
:1015800028858E8181110CC0AE01475F5F4F5F934C
:101590004F932F939F936AD00F900F900F900F90BF
:1015A000DF91CF91089521D088E592E0B7DF49DB44
:1015B0002AD181E090E00895E0EBF0E08081826044
:1015C0008083E1EBF0E080818460808380818260B1
:1015D0008083808181608083E0E7F0E080818260A9
:1015E00080838CE38093B30008954FDFE5DFABDCAD
:1015F000E3DAF6DC33DB25DB89EB92E0C0DB83E862
:1016000092E000DD82E792E09F938F9389E692E07B
:101610009F938F930BDD83E08F9388EE8F938AE8FF
:1016200093E09F938F938BE492E09F938F9382E458
:1016300092E09F938F93FADC8EE092E0E3DC8DEEF4
:1016400091E09F938F9381E02AE835E0283E354072
:1016500008F080E08F938FDF05D28DB79EB70F968D
:101660000FB6F8949EBF0FBE8DBF0895CF93DF9342
:10167000CDB7DEB71E810F81F8948FEF91E29EBF48
:101680008DBFDFDACE0108969F938F930F931F9340
:1016900056DACE0108969F938F930F931F9384EE93
:1016A00091E09F938F93C2DC0FB6F894DEBF0FBE1C
:1016B000CDBFD4DA9FEF2DE389E4915020408040E4
:1016C000E1F700C00000CDDA9FEF21EE84E09150F9
:1016D00020408040E1F700C00000EBCF8EE2FADA54
:1016E00084E690E01BDFFACFBC01990F880B990BC1
:1016F000089521E030E002C0220F331F8A95E2F7FF
:1017000080916105909162052823392381E0232B84
:1017100009F480E00895803148F4E82FF0E0EE0FFE
:10172000FF1FEF5BFA4F80819181089580E090E088
:10173000089590E09C01220F331F820F931F880FA2
:10174000991F8F5E9A4F089590E0880F991F8F5BC5
:101750009A4F089580910B05089580910A05089588
:10176000CF93CFB7CC1FCC27CC1FF894809109051D
:101770008F3F41F483E793E09F938F9377DF0F9040
:101780000F9003C08F5F80930905E0E7F0E0808150
:101790008D7F8083CC2309F07894CF910895CF93E7
:1017A000CFB7CC1FCC27CC1FF894809109058111AD
:1017B00008C089E593E09F938F9358DF0F900F90B7
:1017C00003C081508093090580910905811105C0EE
:1017D000E0E7F0E0808182608083CC2309F0789498
:1017E000CF91089580E0B0DF2EE63BE0FC0131832D
:1017F00020838091610590916205816090936205DC
:1018000080936105089510920B05E1E1F5E082E017
:101810008183828193819EBF8DBF0F901F902F90F7
:101820003F904F905F906F907F908F909F90AF9080
:10183000BF90CF90DF90EF90FF900F911F912F916D
:101840003F914F915F916F917F918F919F91AF9158
:10185000BF91CF91DF91EF91FF91FFBFFF9118955D
:101860008AEC92E09F938F9301DF0F900F90089581
:10187000CF93883008F042C090E0FC01EE0FFF1FCC
:10188000E80FF91FEE0FFF1FEF5EFA4F0280F381A2
:10189000E02D27E633E0829FA001839F500D929FA9
:1018A000500D11242FE131E2241B350B2E173F0779
:1018B00038F1C9018E1B9F0BAC014F5F5F4F403168
:1018C000510510F4C42F01C0C0E1C23030F06C2FBC
:1018D00070E061507109DFD302C060E070E090E019
:1018E00080E009C040818427E60FF71F2E173F07CD
:1018F00008F4F9019F5F9C17A8F303C080E001C0C2
:1019000080E0CF910895CF92DF92EF92FF920F93F4
:101910001F93CF93DF93F82E062F22DF10E00FC026
:10192000212F30E0F901EE0FFF1FE20FF31FEE0F42
:10193000FF1FEF5EFA4F8181882319F01F5F183077
:1019400078F3183019F42BDF8FEF83C08F2DE3DE8F
:10195000892B19F424DF8FEF7CC0C12FD0E0FE016A
:10196000EE0FFF1FEC0FFD1FEE0FFF1FEF5EFA4F94
:10197000F08281E08183033038F08AE093E09F9326
:101980008F9374DE0F900F907E01EE0CFF1CEC0E17
:10199000FD1EC701880F991F9C012F5E3A4F7901E8
:1019A000D90114960C9327E633E0129FC001139FD0
:1019B000900D11242FE131E26901C81AD90A86EA93
:1019C0009EE092DE960121503109F7013383228394
:1019D000D6016C930280F381E02D9F0121503109E3
:1019E000D70113963C932E93129770831296ED9124
:1019F000FC9113979F012150310913963C932E932C
:101A00001297808390E012C0FE01EE0FFF1FEC0FD3
:101A1000FD1FEE0FFF1FEF5EFA4FA281B3819D0104
:101A200021503109338322831C929F5F913260F3EE
:101A3000812F1EDF9E01220F331FC20FD31FCC0F39
:101A4000DD1FCF5EDA4F8D8388DE612FFAD1A7DEEE
:101A5000812FDF91CF911F910F91FF90EF90DF9039
:101A6000CF900895CF9320E00DC0822F90E0FC012D
:101A7000EE0FFF1FE80FF91FEE0FFF1FEF5EFA4F8B
:101A800011822F5F283088F3209141053091420563
:101A90008EEE92E09F938F9381E0232B09F480E0F8
:101AA0008F9369DD62E080E02EDF0F900F900F9042
:101AB000C1E008C08C2F1DDE882319F062E08C2F56
:101AC00022DFCF5FC031B0F348DEE1D1CF9108957E
:101AD000883030F590E0FC01EE0FFF1FE80FF91F92
:101AE000EE0FFF1FEF5EFA4F6281738127E633E04E
:101AF000829FA001839F500D929F500D11248FE172
:101B000091E29C01241B350B89EB9DE1841B950B15
:101B10006817790738F02617370730F480E0089502
:101B200080E0089580E0089581E00895FF93FFB775
:101B3000FF93EF93DF93CF93BF93AF939F938F93D5
:101B40007F936F935F934F933F932F931F930F93C5
:101B5000FF92EF92DF92CF92BF92AF929F928F92BD
:101B60007F926F925F924F923F922F921F92112419
:101B70000F9280910B0590E02DB73EB7FC01EE0F60
:101B8000FF1FE80FF91FEE0FFF1FEF5EFA4F3383C1
:101B900022838FED91E29EBF8DBF80910B0598DF70
:101BA000811107C081E493E09F938F935FDD0F90D5
:101BB0000F9010910B05C12FD0E0812F59DEFE014F
:101BC000EE0FFF1FEC0FFD1FEE0FFF1FEF5EFA4F32
:101BD00085838181823011F481E08183BEDD813093
:101BE00039F4612F81E195E07AD180930B0506C02D
:101BF000612F81E195E0DAD080930B0580910B0590
:101C00008F3F11F410920B0580910B05C82FD0E087
:101C10008E01000F111FF801EC0FFD1FEE0FFF1FCB
:101C2000EF5EFA4F92E0918323DEC00FD11FCC0FFD
:101C3000DD1FCF5EDA4F9D81891739F087E293E08F
:101C40009F938F9313DD0F900F9080910B0540DFD2
:101C5000811107C08FE093E09F938F9307DD0F9072
:101C60000F9080910B0590E0FC01EE0FFF1FE80F35
:101C7000F91FEE0FFF1FEF5EFA4F828193819EBF27
:101C80008DBF0F901F902F903F904F905F906F905F
:101C90007F908F909F90AF90BF90CF90DF90EF900C
:101CA000FF900F911F912F913F914F915F916F91F5
:101CB0007F918F919F91AF91BF91CF91DF91EF91E4
:101CC000FF91FFBFFF91189580910905811104C014
:101CD000F8941092B2002ACF0895CF939FEF980FF7
:101CE000973088F5C82F3CDD8C2F90E0FC01EE0F7B
:101CF000FF1FE80FF91FEE0FFF1FEF5EFA4F218164
:101D0000211103C04CDD80E01FC0222351F0FC01F3
:101D1000EE0FFF1FE80FF91FEE0FFF1FEF5EFA4FE8
:101D200011821BDD6C2F8DD015DDC81309C001C0D9
:101D300036DD809109058111FBCF7894C5DFFFCF97
:101D40002EDD81E001C080E0CF91089503DDC82F32
:101D500090E0FC01EE0FFF1FE80FF91FEE0FFF1FD1
:101D6000EF5EFA4F8081D7DC8C01892B11F48C2F28
:101D7000B4DFF80119958C2FB0DFFFCFAC0191E0F3
:101D80000FC0292F30E0F901EE0FFF1FE20FF31F04
:101D9000EE0FFF1FE40FF51F2181213029F09F5F17
:101DA000983078F380E0089581E008951F93CF93F1
:101DB000DF93EC01162FE2DF8823D1F1812F282F4A
:101DC00030E02F5F3F4F27703078332334F42150B9
:101DD0003109286F3F6F2F5F3F4F822F3327F90163
:101DE000EE0FFF1F2E0F3F1FF901EE0FFF1FEC0F2D
:101DF000FD1F9181913019F49081911104C0181345
:101E0000DECF90E001C091E0911117C0812F90E0EA
:101E10009C01220F331F820F931F880F991FC80F39
:101E2000D91F8981813031F48881811105C005C0B5
:101E300080E003C080E001C0812FDF91CF911F912E
:101E40000895CF93DF938130F9F40AC02BE0C29F4D
:101E5000C00111246D2F8D599A4F06D8CF5F02C053
:101E6000D62FC0E0C33090F38D2F63DCFC0184815A
:101E70009181913049F42BE0829FC00111246D2F94
:101E80008D599A4F0E940F07DF91CF910895CF93FC
:101E9000813019F50AC02BE0C29FC00111248D5971
:101EA0009A4F0E943007CF5F01C0C0E0C33098F363
:101EB000C1E011C08C2F3DDCFC012181213051F4A7
:101EC0008481FBE08F9FC00111246C2F8D599A4FA4
:101ED0000E940F07CF5FC83068F3CF9108950F932A
:101EE0001F93CF938C01C62F8EE695E00E94D506F6
:101EF000811109C08EE695E00E94DC06682F83E61A
:101F000095E00E940F0789E795E00E94D5068111B0
:101F100009C089E795E00E94DC06682F8EE695E00F
:101F20000E940F07CC23D9F08C2F90E0FC01EE0F1C
:101F3000FF1FE80FF91FEE0FFF1FE00FF11F818158
:101F4000813069F48C2FF5DBFC018481FBE08F9FED
:101F5000C00111246C2F8D599A4F0E940F0783E600
:101F600095E00E94D506811105C083E695E00E94A8
:101F7000DC061AC08EE695E00E94D506811105C0E8
:101F80008EE695E00E94DC060FC089E795E00E948E
:101F9000D506811105C089E795E00E94DC0604C0E2
:101FA0008CE893E02FD880E0CF911F910F91089596
:101FB0000E940D020E941502FDCF82EA93E00E946A
:101FC000BF0683E00E9447058FEF0E94CC026AE9BA
:101FD00073E08FEF0E94290361E08FEF0E94B1024E
:101FE0008EE30E946A0683E00E944F0560E08FEF57
:101FF0000E94B1028EE30E946A06E3CF80E00E9455
:10200000470563E973E08FEF0E94290361E08FEFDA
:102010000E94B1028EE30E946A0680E00E944F0592
:1020200060E08FEF0E94B1028EE30E946A06E6CF65
:1020300081E08ADB28ED3FE0FC0131832083809141
:1020400061059091620582609093620580936105BD
:10205000089582E079DB2DED3FE0FC0131832083A0
:1020600080916105909162058460909362058093F0
:102070006105089583E068DB2EEF3FE0FC013183CA
:10208000208380916105909162058860909362053C
:10209000809361050895AA1BBB1B51E107C0AA1FCD
:1020A000BB1FA617B70710F0A61BB70B881F991FF9
:1020B0005A95A9F780959095BC01CD010895EE0F32
:1020C000FF1F881F8BBF0790F691E02D1994FB012D
:1020D000DC0102C001900D9241505040D8F70895A4
:1020E000CF93DF93EC018B8188608B83CE0106D088
:1020F0002B81277F2B83DF91CF9108952F923F92E1
:102100004F925F926F927F928F929F92AF92BF9207
:10211000CF92DF92EF92FF920F931F93CF93DF93B3
:10212000CDB7DEB72B970FB6F894DEBF0FBECDBF8D
:102130006C017B018A01FC0117821682838181FF79
:10214000BFC1CE0101963C01F6019381F70193FDD9
:10215000859193FF81917F01882309F4ADC1853278
:1021600039F493FD859193FF81917F01853221F4AC
:10217000B60190E0D6D1E8CF912C212C312CFFE193
:10218000F315D8F08B3279F038F4803279F083325D
:10219000A1F4232D20611DC08D3261F0803369F4DC
:1021A000232D216016C0832D8260382EE32DE4603C
:1021B0003E2E2AC0F32DF8601DC037FC2DC020ED47
:1021C000280F2A3040F08E32B9F436FC75C1232D29
:1021D0002064322E19C036FE06C08AE0989E200D7B
:1021E0001124922E11C0EAE02E9E200D1124222EE1
:1021F000F32DF0623F2E08C08C3621F4832D8068C9
:10220000382E02C0883641F4F70193FD859193FF83
:1022100081917F018111B3CF982F9F7D9554933089
:1022200028F40C5F1F4F9FE399830DC0833631F074
:10223000833771F0833509F055C020C0F8018081E3
:1022400089830E5F1F4F88248394912C530112C001
:102250002801F2E04F0E511CF801A080B18036FE3B
:1022600003C0692D70E002C06FEF7FEFC5014ED152
:102270004C018201F32DFF773F2E15C0280122E08B
:10228000420E511CF801A080B18036FE03C0692DBA
:1022900070E002C06FEF7FEFC5012DD14C01F32D2F
:1022A000F0683F2E820133FC19C0822D90E0881621
:1022B0009906A0F4B60180E290E033D12A94F5CFDC
:1022C000F50137FC859137FE81915F01B60190E001
:1022D00028D121102A9421E0821A910881149104B6
:1022E00079F7E1C0843611F0893639F5F80137FE07
:1022F00007C060817181828193810C5F1F4F08C08C
:1023000060817181072E000C880B990B0E5F1F4FA7
:10231000F32DFF763F2E97FF09C09095809570951D
:1023200061957F4F8F4F9F4FF0683F2E2AE030E03E
:10233000A30133D1882E861844C0853731F4232D6C
:102340002F7EB22E2AE030E025C0932D997FB92E42
:102350008F36C1F018F4883579F0AEC0803719F0A7
:10236000883721F0A9C0E92FE061BE2EB4FE0DC070
:10237000FB2DF460BF2E09C034FE0AC0292F266051
:10238000B22E06C028E030E005C020E130E002C0F7
:1023900020E132E0F801B7FE07C0608171818281DF
:1023A00093810C5F1F4F06C06081718180E090E0D7
:1023B0000E5F1F4FA301F1D0882E8618FB2DFF77EB
:1023C0003F2E36FE0DC0232D2E7FA22E891458F4E9
:1023D00034FE0BC032FC09C0832D8E7EA82E05C0B2
:1023E000B82CA32C03C0B82C01C0B92CA4FE0FC07C
:1023F000FE01E80DF11D8081803321F49A2D997E34
:10240000A92E09C0A2FE06C0B394B39404C08A2DBD
:10241000867809F0B394A3FC10C0A0FE06C0B214E5
:1024200080F4280C922C9B180DC0B21458F4B601FD
:1024300080E290E076D0B394F8CFB21418F42B1861
:1024400002C0982C212CA4FE0FC0B60180E390E0BE
:1024500068D0A2FE16C0A1FC03C088E790E002C0CD
:1024600088E590E0B6010CC08A2D867851F0A1FE77
:1024700002C08BE201C080E2A7FC8DE2B60190E0D1
:1024800050D0891430F4B60180E390E04AD09A9499
:10249000F8CF8A94F301E80DF11D8081B60190E038
:1024A00040D08110F6CF222009F44ECEB60180E252
:1024B00090E037D02A94F7CFF6018681978102C049
:1024C0008FEF9FEF2B960FB6F894DEBF0FBECDBFF8
:1024D000DF91CF911F910F91FF90EF90DF90CF9000
:1024E000BF90AF909F908F907F906F905F904F9034
:1024F0003F902F900895FC010590615070400110AD
:10250000D8F7809590958E0F9F1F0895FC0161501C
:10251000704001900110D8F7809590958E0F9F1F05
:1025200008950F931F93CF93DF93FB01238121FD28
:1025300003C08FEF9FEF2CC022FF16C0468157814A
:10254000248135814217530744F4A081B1819D0154
:102550002F5F3F4F318320838C93268137812F5FFC
:102560003F4F3783268314C08B01EC01FB010084AD
:10257000F185E02D1995892BE1F6D80116968D91FC
:102580009C911797019617969C938E931697CE0160
:10259000DF91CF911F910F910895FA01AA2728305A
:1025A00051F1203181F1E8946F936E7F6E5F7F4F20
:1025B0008F4F9F4FAF4FB1E03ED0B4E03CD0670F9C
:1025C000781F891F9A1FA11D680F791F8A1F911DEF
:1025D000A11D6A0F711D811D911DA11D20D009F43F
:1025E00068943F912AE0269F11243019305D319381
:1025F000DEF6CF010895462F4770405D4193B3E06A
:102600000FD0C9F7F6CF462F4F70405D4A3318F010
:10261000495D31FD4052419302D0A9F7EACFB4E0C1
:10262000A6959795879577956795BA95C9F7009779
:102630006105710508959B01AC010A2E069457951A
:10264000479537952795BA95C9F7620F731F841F71
:0A265000951FA01D0895F894FFCF18
:10265A000846520000000200000000A60600000022
:10266A000000000002000000000408000000000052
:00000001FF
